{
  "contractName": "ContactList",
  "abi": [
    {
      "inputs": [
        {
          "internalType": "uint256",
          "name": "",
          "type": "uint256"
        }
      ],
      "name": "contact",
      "outputs": [
        {
          "internalType": "string",
          "name": "nome",
          "type": "string"
        },
        {
          "internalType": "string",
          "name": "phoneNumber",
          "type": "string"
        }
      ],
      "stateMutability": "view",
      "type": "function",
      "constant": true
    },
    {
      "inputs": [
        {
          "internalType": "string",
          "name": "",
          "type": "string"
        }
      ],
      "name": "nameToPhoneNumber",
      "outputs": [
        {
          "internalType": "string",
          "name": "",
          "type": "string"
        }
      ],
      "stateMutability": "view",
      "type": "function",
      "constant": true
    },
    {
      "inputs": [],
      "name": "retrieve",
      "outputs": [
        {
          "components": [
            {
              "internalType": "string",
              "name": "nome",
              "type": "string"
            },
            {
              "internalType": "string",
              "name": "phoneNumber",
              "type": "string"
            }
          ],
          "internalType": "struct ContactList.Contact[]",
          "name": "",
          "type": "tuple[]"
        }
      ],
      "stateMutability": "view",
      "type": "function",
      "constant": true
    },
    {
      "inputs": [
        {
          "internalType": "string",
          "name": "_name",
          "type": "string"
        },
        {
          "internalType": "string",
          "name": "_phoneNumber",
          "type": "string"
        }
      ],
      "name": "addContact",
      "outputs": [],
      "stateMutability": "nonpayable",
      "type": "function"
    }
  ],
  "bytecode": "0x608060405234801561001057600080fd5b50610b20806100206000396000f3fe608060405234801561001057600080fd5b506004361061004c5760003560e01c80630c1cc170146100515780632b6258b3146100825780632e64cec11461009e57806396a063f8146100bc575b600080fd5b61006b600480360381019061006691906106e9565b6100ec565b6040516100799291906108dd565b60405180910390f35b61009c6004803603810190610097919061067d565b610230565b005b6100a66102e3565b6040516100b39190610899565b60405180910390f35b6100d660048036038101906100d1919061063c565b610466565b6040516100e391906108bb565b60405180910390f35b600181815481106100fc57600080fd5b906000526020600020906002020160009150905080600001805461011f90610a32565b80601f016020809104026020016040519081016040528092919081815260200182805461014b90610a32565b80156101985780601f1061016d57610100808354040283529160200191610198565b820191906000526020600020905b81548152906001019060200180831161017b57829003601f168201915b5050505050908060010180546101ad90610a32565b80601f01602080910402602001604051908101604052809291908181526020018280546101d990610a32565b80156102265780601f106101fb57610100808354040283529160200191610226565b820191906000526020600020905b81548152906001019060200180831161020957829003601f168201915b5050505050905082565b60016040518060400160405280848152602001838152509080600181540180825580915050600190039060005260206000209060020201600090919091909150600082015181600001908051906020019061028c92919061051c565b5060208201518160010190805190602001906102a992919061051c565b505050806002836040516102bd9190610882565b908152602001604051809103902090805190602001906102de92919061051c565b505050565b60606001805480602002602001604051908101604052809291908181526020016000905b8282101561045d578382906000526020600020906002020160405180604001604052908160008201805461033a90610a32565b80601f016020809104026020016040519081016040528092919081815260200182805461036690610a32565b80156103b35780601f10610388576101008083540402835291602001916103b3565b820191906000526020600020905b81548152906001019060200180831161039657829003601f168201915b505050505081526020016001820180546103cc90610a32565b80601f01602080910402602001604051908101604052809291908181526020018280546103f890610a32565b80156104455780601f1061041a57610100808354040283529160200191610445565b820191906000526020600020905b81548152906001019060200180831161042857829003601f168201915b50505050508152505081526020019060010190610307565b50505050905090565b600281805160208101820180518482526020830160208501208183528095505050505050600091509050805461049b90610a32565b80601f01602080910402602001604051908101604052809291908181526020018280546104c790610a32565b80156105145780601f106104e957610100808354040283529160200191610514565b820191906000526020600020905b8154815290600101906020018083116104f757829003601f168201915b505050505081565b82805461052890610a32565b90600052602060002090601f01602090048101928261054a5760008555610591565b82601f1061056357805160ff1916838001178555610591565b82800160010185558215610591579182015b82811115610590578251825591602001919060010190610575565b5b50905061059e91906105a2565b5090565b5b808211156105bb5760008160009055506001016105a3565b5090565b60006105d26105cd84610945565b610914565b9050828152602081018484840111156105ea57600080fd5b6105f58482856109f0565b509392505050565b600082601f83011261060e57600080fd5b813561061e8482602086016105bf565b91505092915050565b60008135905061063681610ad3565b92915050565b60006020828403121561064e57600080fd5b600082013567ffffffffffffffff81111561066857600080fd5b610674848285016105fd565b91505092915050565b6000806040838503121561069057600080fd5b600083013567ffffffffffffffff8111156106aa57600080fd5b6106b6858286016105fd565b925050602083013567ffffffffffffffff8111156106d357600080fd5b6106df858286016105fd565b9150509250929050565b6000602082840312156106fb57600080fd5b600061070984828501610627565b91505092915050565b600061071e838361083e565b905092915050565b600061073182610985565b61073b81856109a8565b93508360208202850161074d85610975565b8060005b85811015610789578484038952815161076a8582610712565b94506107758361099b565b925060208a01995050600181019050610751565b50829750879550505050505092915050565b60006107a682610990565b6107b081856109b9565b93506107c08185602086016109ff565b6107c981610ac2565b840191505092915050565b60006107df82610990565b6107e981856109ca565b93506107f98185602086016109ff565b61080281610ac2565b840191505092915050565b600061081882610990565b61082281856109db565b93506108328185602086016109ff565b80840191505092915050565b6000604083016000830151848203600086015261085b828261079b565b91505060208301518482036020860152610875828261079b565b9150508091505092915050565b600061088e828461080d565b915081905092915050565b600060208201905081810360008301526108b38184610726565b905092915050565b600060208201905081810360008301526108d581846107d4565b905092915050565b600060408201905081810360008301526108f781856107d4565b9050818103602083015261090b81846107d4565b90509392505050565b6000604051905081810181811067ffffffffffffffff8211171561093b5761093a610a93565b5b8060405250919050565b600067ffffffffffffffff8211156109605761095f610a93565b5b601f19601f8301169050602081019050919050565b6000819050602082019050919050565b600081519050919050565b600081519050919050565b6000602082019050919050565b600082825260208201905092915050565b600082825260208201905092915050565b600082825260208201905092915050565b600081905092915050565b6000819050919050565b82818337600083830152505050565b60005b83811015610a1d578082015181840152602081019050610a02565b83811115610a2c576000848401525b50505050565b60006002820490506001821680610a4a57607f821691505b60208210811415610a5e57610a5d610a64565b5b50919050565b7f4e487b7100000000000000000000000000000000000000000000000000000000600052602260045260246000fd5b7f4e487b7100000000000000000000000000000000000000000000000000000000600052604160045260246000fd5b6000601f19601f8301169050919050565b610adc816109e6565b8114610ae757600080fd5b5056fea2646970667358221220698b418b1e58bcead0bbbe1664bd71410ebd5c0965ffea22dcfd40dee9c6a21764736f6c63430008000033",
  "immutableReferences": {},
  "source": "// SPDX-License-Identifier: MIT\npragma solidity 0.8.0;\ncontract ContactList {\n    // uint phoneNumber;\n    uint256 phoneNumber;\n    struct Contact {\n        // assosiate name with phone number\n        string nome;\n        string phoneNumber;\n    \n    }\n    Contact[] public contact; //array for list of contacts\n    mapping(string => string) public nameToPhoneNumber; //used to map name to phone number, so you can get phone number using name\n     \n    function retrieve() public view returns (Contact[] memory){\n        return contact; //retrieve tuple of all contacts\n    }\n    \n    function addContact(string memory _name, string memory _phoneNumber) public {\n        contact.push(Contact(_name, _phoneNumber)); //append to  Contact[] array\n        nameToPhoneNumber[_name] = _phoneNumber; //use name to get phone number\n    }\n    \n}",
  "sourcePath": "/home/p4/ProjetoMestradoP4IoTForensics/exercises/pre-processing/Ethereum/contracts/ContactList.sol",
  "compiler": {
    "name": "solc",
    "version": "0.8.0+commit.c7dfd78e.Emscripten.clang"
  },
  "schemaVersion": "3.4.15",
  "updatedAt": "2023-08-22T20:58:20.723Z",
  "networkType": "ethereum",
  "devdoc": {
    "kind": "dev",
    "methods": {},
    "version": 1
  },
  "userdoc": {
    "kind": "user",
    "methods": {},
    "version": 1
  }
}